:100000000C945D000C943F060C9466060C948500DD
:100010000C9485000C9485000C9485000C9485004C
:100020000C9485000C9485000C9485000C9485003C
:100030000C9485000C9485000C9485000C9485002C
:100040000C949D060C9485000C94AD030C94DF0376
:100050000C9485000C9485000C9485000C9485000C
:100060000C9485000C94850000000008000201003B
:100070000003040700000000000000000102040863
:100080001020408001020408102001020408102002
:10009000040404040404040402020202020203032E
:1000A0000303030300000000250028002B000000CC
:1000B0000000240027002A000F0411241FBECFEFE8
:1000C000D8E0DEBFCDBF11E0A0E0B1E0E0EEF5E1A9
:1000D00002C005900D92A632B107D9F721E0A6E241
:1000E000B1E001C01D92A23EB207E1F710E0CDE5FC
:1000F000D0E004C02197FE010E94A508CC35D107AD
:10010000C9F70E948E060C94EE0A0C9400008091B0
:100110003A0190913B01019690933B0180933A0103
:10012000089526E040E855E260E070E08CE391E05D
:100130000E94480388EE93E0A0E0B0E080932A019B
:1001400090932B01A0932C01B0932D0143E050E03C
:1001500067E870E080E00E941F0661E089E00E948D
:10016000170861E08BE00E94170861E083E00E94BD
:10017000170861E08AE00C9417084F925F926F9223
:100180007F928F929F92AF92BF92CF92DF92EF9227
:10019000FF92CF93DF9380913A0190913B01843697
:1001A0009105B0F42FE632E143E85AE3609126016D
:1001B0007091270180912801909129010E94AC083B
:1001C0006093260170932701809328019093290161
:1001D000C0913A01D0913B0140902A0150902B01EF
:1001E00060902C0170902D01C301B2010E94C709DB
:1001F0006B017C012AE939E949E15FE30E947C0A4D
:100200004B015C01BE0180E090E00E94C509A501A0
:1002100094010E94180987FF17C060913A017091FC
:100220003B0180E090E00E94C509A50194010E9475
:100230001D092091260130912701409128015091FC
:1002400029010E94AC0862C0C0913A01D0913B01E3
:1002500023E333E343E35FE3C701B6010E947C0A73
:100260004B015C01BE0180E090E00E94C509A50140
:1002700094010E94180987FD41C080913A01909134
:100280003B01A0E0B0E084159505A605B705DCF5B7
:10029000C0913A01D0913B016091360170913701D4
:1002A00080913801909139012AE037ED43E25CE317
:1002B0000E94180987FD27C0BE0180E090E00E94DF
:1002C000C509A50194010E94AB084B015C012AE914
:1002D00039E949E95EE3C701B6010E947C0A9B0146
:1002E000AC01C501B4010E941D099B01AC0160E095
:1002F00070E080E89FE30E94AB0808C060E070E017
:1003000080E89FE303C060E070E0CB0120E030E0D4
:100310004FE753E40E947C0A0E948F09EB016F3F74
:10032000710519F014F0CFEFD0E0BE0183E00E9418
:100330008F0760E089E00E94530860E08AE00E9435
:10034000530860E08BE00E94530860913A0170917D
:100350003B014AE050E08CE391E00E94DC046CE257
:100360008CE391E00E947B04BE01660F771F660F4D
:10037000771F4AE050E08CE391E00E942A056CE28E
:100380008CE391E00E947B0440913601509137014B
:10039000609138017091390122E030E08CE391E006
:1003A0000E940C060E94E706C0902E01D0902F01FB
:1003B000E0903001F0903101DC01CB018C199D09F6
:1003C000AE09BF0987399105A105B10508F470C0D0
:1003D00060913A0170913B0180E090E00E94C50974
:1003E0002091320130913301409134015091350117
:1003F0000E94AB0820E030E04AE754E40E947C0A07
:100400004B015C010E94E706C0903601D090370195
:10041000E0903801F090390140902E0150902F016A
:10042000609030017090310164197509860997094F
:100430000E94C5099B01AC01C501B4010E941D09C0
:1004400020E030E040E05FE30E947C0A4B015C0169
:1004500020E030E040E05FE3C701B6010E947C0A83
:100460009B01AC01C501B4010E94AC086093360148
:1004700070933701809338019093390160913A016C
:1004800070913B0180E090E00E94C50960933201C9
:100490007093330180933401909335010E94E706F5
:1004A00060932E0170932F0180933001909331015E
:1004B00062E370E080E090E0DF91CF91FF90EF90F9
:1004C000DF90CF90BF90AF909F908F907F906F9074
:1004D0005F904F900C941807FC01918D228D892F0D
:1004E00090E0805C9F4F821B91098F73992708953C
:1004F000FC01918D828D981731F0828DE80FF11DEE
:10050000858D90E008958FEF9FEF0895FC01918D08
:10051000828D981761F0828DDF01A80FB11D5D9665
:100520008C91928D9F5F9F73928F90E008958FEFD3
:100530009FEF0895FC01538D448D252F30E0842FCB
:1005400090E0821B930B541710F0CF9608950197FB
:10055000089585E094E0892B49F080E090E0892BB4
:1005600029F00E94050481110C9400000895FC01FB
:10057000848DDF01A80FB11DA35ABF4F2C91848D2C
:1005800090E001968F739927848FA689B7892C9361
:10059000A089B1898C91837080648C93938D848DB4
:1005A000981306C00288F389E02D80818F7D8083B7
:1005B0000895EF92FF920F931F93CF93DF93EC0177
:1005C00081E0888F9B8D8C8D981305C0E889F9890F
:1005D000808185FD26C0F62E0B8D10E00F5F1F4F2A
:1005E0000F731127E02E8C8DE8120CC00FB607FC9C
:1005F000FACFE889F989808185FFF5CFCE010E9485
:10060000B702F1CF8B8DFE01E80FF11DE35AFF4FCA
:10061000F0829FB7F8940B8FEA89FB898081806212
:100620000AC09FB7F894EE89FF896083E889F98949
:1006300080818370806480839FBF81E090E0DF9140
:10064000CF911F910F91FF90EF900895CF93DF937B
:10065000EC01888D8823C9F0EA89FB89808185FDBA
:1006600005C0A889B9898C9186FD0FC00FB607FC1B
:10067000F5CF808185FFF2CFA889B9898C9185FF5C
:10068000EDCFCE010E94B702E7CFDF91CF91089561
:10069000CF92DF92EF92FF921F93CF93DF93EC0103
:1006A0006A017B01122FE889F98982E08083411574
:1006B000514E61057105B1F060E079E08DE390E0A5
:1006C000A70196010E948308DA01C9010197A109D7
:1006D000B109B695A795979587959C01211580E15D
:1006E0003807A8F0E889F989108260E874E88EE19B
:1006F00090E0A70196010E948308DA01C9010197E1
:10070000A109B109B695A795979587959C01EC85A8
:10071000FD853083EE85FF852083188EEC89FD8969
:100720001083EA89FB89808180618083EA89FB8963
:10073000808188608083EA89FB89808180688083EA
:10074000EA89FB8980818F7D8083DF91CF911F9122
:10075000FF90EF90DF90CF9008951F920F920FB609
:100760000F9211242F938F939F93EF93FF93E09118
:100770004C01F0914D018081E0915201F0915301C3
:1007800082FD12C09081809155018F5F8F732091FF
:100790005601821751F0E0915501F0E0E45CFE4F04
:1007A000958F8093550101C08081FF91EF919F91BA
:1007B0008F912F910F900FBE0F901F9018951F9241
:1007C0000F920FB60F9211242F933F934F935F9385
:1007D0006F937F938F939F93AF93BF93EF93FF9309
:1007E0008CE391E00E94B702FF91EF91BF91AF912E
:1007F0009F918F917F916F915F914F913F912F9139
:100800000F900FBE0F901F9018958CE391E00E94FF
:100810006C0221E0892B09F420E0822F0895ECE39B
:10082000F1E01382128288EE93E0A0E0B0E08483CE
:100830009583A683B78388E091E09183808385ECDC
:1008400090E09587848784EC90E09787868780EC9A
:1008500090E0918B808B81EC90E0938B828B82EC8B
:1008600090E0958B848B86EC90E0978B868B118E35
:10087000128E138E148E0895CF92DF92EF92FF9214
:100880000F931F93CF93DF936C017A018B01C0E02C
:10089000D0E0CE15DF0581F0D8016D918D01D60134
:1008A000ED91FC910190F081E02DC6010995892B15
:1008B00011F02196EECF7E01C701DF91CF911F91FC
:1008C0000F91FF90EF90DF90CF9008956115710523
:1008D00079F0FB0101900020E9F73197AF01461B49
:1008E000570BDC01ED91FC910280F381E02D09941E
:1008F00080E090E00895DC01ED91FC910190F081A1
:10090000E02D099466E171E00C9466048F929F9249
:10091000AF92BF92EF92FF920F931F93CF93DF930B
:10092000CDB7DEB7A1970FB6F894DEBF0FBECDBF2F
:100930007C01FA01CB0119A2223008F42AE08E01D1
:100940000F5D1F4F822E912CA12CB12CBF01A50150
:1009500094010E948308F901CA01015011096A300B
:1009600014F4605D01C0695CD8016C93232B242BC7
:10097000252B61F7B801C7010E946604A1960FB646
:10098000F894DEBF0FBECDBFDF91CF911F910F91C5
:10099000FF90EF90BF90AF909F908F90089521159A
:1009A000310541F4DC01ED91FC910190F081E02DE5
:1009B000642F09940C9486049A01AB0160E070E006
:1009C0000C94CF04CF92DF92EF92FF920F931F937C
:1009D000CF93DF932115310581F4DC01ED91FC917A
:1009E0000190F081E02D642FDF91CF911F910F9145
:1009F000FF90EF90DF90CF9009942A30310501F5F8
:100A000077FF1DC06A017B01EC016DE20E947B044F
:100A10008C0144275527BA014C195D096E097F09DD
:100A20002AE0CE010E948604800F911FDF91CF91B2
:100A30001F910F91FF90EF90DF90CF9008952AE0E3
:100A4000DF91CF911F910F91FF90EF90DF90CF90AA
:100A50000C9486049A01AB01770F660B770B0C940C
:100A6000E2047F928F929F92AF92BF92CF92DF92D9
:100A7000EF92FF920F931F93CF93DF938C016A0144
:100A80007B01722E9A01AB01C701B6010E94E90AEF
:100A9000882319F069E171E027C046015701E89405
:100AA000B7F82FEF3FEF4FE75FE7C501B4010E94B2
:100AB000E90A81110DC02FEF3FEF4FE75FE7C50156
:100AC000B4010E94180918161CF46DE171E00CC005
:100AD0002FEF3FEF4FE75FE4C701B6010E94770AAF
:100AE000181694F461E271E0C801DF91CF911F9173
:100AF0000F91FF90EF90DF90CF90BF90AF909F90BD
:100B00008F907F900C9466042FEF3FEF4FE75FECE0
:100B1000C701B6010E94180987FDE4CF20E030E04C
:100B2000A901C701B6010E94180987FF0AC06DE23A
:100B3000C8010E947B04EC01F7FAF094F7F8F094F6
:100B400002C0C0E0D0E0B12C60E070E080E09FE344
:100B50007B1441F020E030E040E251E40E941D09A6
:100B6000B394F6CFA70196010E94AC086B017C01FB
:100B70000E9496094B015C012AE0AB01BC01C8014F
:100B80000E948604C80FD91F7720B9F1C501B401AE
:100B90000E94C5099B01AC01C701B6010E94AB08C8
:100BA0006B017C016EE2C8010E947B04C80FD91F53
:100BB00020E030E040E251E4C701B6010E947C0A27
:100BC0004B015C010E9496096B017C014AE050E0F8
:100BD000C8010E94DC04C80FD91FB60180E090E074
:100BE0000E94C5099B01AC01C501B4010E94AB087C
:100BF0006B017C017A947110DBCFCE01DF91CF9134
:100C00001F910F91FF90EF90DF90CF90BF90AF902A
:100C10009F908F907F9008950F931F93CF93DF93B2
:100C2000EC010E9431058C01CE010E948204800FEC
:100C3000911FDF91CF911F910F91089508958230F8
:100C4000E8F4E82FF0E0EE0FFF1FE050FF4F718354
:100C50006083813041F0809169008C7F482B409304
:100C60006900E89A089580916900837F440F551FB9
:100C7000440F551F482B40936900E99A08951F922D
:100C80000F920FB60F9211242F933F934F935F93C0
:100C90006F937F938F939F93AF93BF93EF93FF9344
:100CA000E0910001F09101010995FF91EF91BF9151
:100CB000AF919F918F917F916F915F914F913F91F4
:100CC0002F910F900FBE0F901F9018951F920F92AB
:100CD0000FB60F9211242F933F934F935F936F930F
:100CE0007F938F939F93AF93BF93EF93FF93E09185
:100CF0000201F09103010995FF91EF91BF91AF912E
:100D00009F918F917F916F915F914F913F912F9123
:100D10000F900FBE0F901F90189508950E945407D2
:100D20000E948D060E949100C9EAD2E00E94BD0097
:100D30002097E1F30E94A902F9CF1F920F920FB6FC
:100D40000F9211242F933F938F939F93AF93BF9351
:100D50008091DA019091DB01A091DC01B091DD017D
:100D60003091D90123E0230F2D3720F40196A11DE6
:100D7000B11D05C026E8230F0296A11DB11D2093C9
:100D8000D9018093DA019093DB01A093DC01B09349
:100D9000DD018091DE019091DF01A091E001B09131
:100DA000E1010196A11DB11D8093DE019093DF0149
:100DB000A093E001B093E101BF91AF919F918F911A
:100DC0003F912F910F900FBE0F901F9018952FB746
:100DD000F8946091DA017091DB018091DC019091CF
:100DE000DD012FBF08953FB7F8948091DE01909107
:100DF000DF01A091E001B091E10126B5A89B05C0FB
:100E00002F3F19F00196A11DB11D3FBFBA2FA92F89
:100E1000982F8827820F911DA11DB11DBC01CD0106
:100E200042E0660F771F881F991F4A95D1F70895F2
:100E30008F929F92AF92BF92CF92DF92EF92FF92EA
:100E40006B017C010E94F3064B015C01C114D104CB
:100E5000E104F10401F10E9482080E94F306DC0122
:100E6000CB0188199909AA09BB09883E9340A105BD
:100E7000B10560F321E0C21AD108E108F10888EE5B
:100E8000880E83E0981EA11CB11CC114D104E1049A
:100E9000F10419F7DBCFFF90EF90DF90CF90BF9078
:100EA000AF909F908F900895789484B5826084BDB0
:100EB00084B5816084BD85B5826085BD85B581605E
:100EC00085BDEEE6F0E0808181608083E1E8F0E0BE
:100ED0001082808182608083808181608083E0E8ED
:100EE000F0E0808181608083E1EBF0E080818460CC
:100EF0008083E0EBF0E0808181608083EAE7F0E0CE
:100F00008081846080838081826080838081816031
:100F100080838081806880831092C10008951F9330
:100F2000CF93DF93182FEB0161E00E941708209701
:100F300011F460E004C0CF3FD10539F461E0812FA6
:100F4000DF91CF911F910C945308E12FF0E0E85905
:100F5000FF4FE491E330F9F048F4E130B9F0E230CA
:100F6000A1F584B5806284BDC8BD34C0E730E9F026
:100F7000E83019F1E43049F5809180008062809377
:100F80008000D0938B00C0938A0024C084B5806811
:100F900084BDC7BD1FC080918000806880938000A1
:100FA000D0938900C093880015C08091B0008068FC
:100FB0008093B000C093B3000DC08091B0008062F8
:100FC0008093B000C093B40005C0C038D1050CF0C8
:100FD000B5CFAFCFDF91CF911F910895833081F0CE
:100FE00028F4813099F08230A1F008958730A9F07B
:100FF0008830B9F08430D1F4809180008F7D03C0B7
:10100000809180008F7780938000089584B58F77DA
:1010100002C084B58F7D84BD08958091B0008F7724
:1010200003C08091B0008F7D8093B0000895CF936E
:10103000DF9390E0FC01E458FF4F2491FC01E0575E
:10104000FF4F8491882361F190E0880F991FFC0184
:10105000E255FF4FC591D491FC01EC55FF4FA5918E
:10106000B491611109C09FB7F894888120958223BB
:101070008883EC912E230BC0623061F49FB7F89403
:101080008881322F309583238883EC912E2B2C93EB
:101090009FBF06C08FB7F894E8812E2B28838FBF9F
:1010A000DF91CF9108951F93CF93DF93282F30E0E6
:1010B000F901E859FF4F8491F901E458FF4FD491A9
:1010C000F901E057FF4FC491CC23C1F0162F8111D5
:1010D0000E94EE07EC2FF0E0EE0FFF1FEC55FF4FE4
:1010E000A591B4919FB7F894111104C08C91D0953B
:1010F000D82302C0EC91DE2BDC939FBFDF91CF9110
:101100001F9108950895A1E21A2EAA1BBB1BFD0191
:101110000DC0AA1FBB1FEE1FFF1FA217B307E407D6
:10112000F50720F0A21BB30BE40BF50B661F771F2E
:10113000881F991F1A9469F760957095809590950E
:101140009B01AC01BD01CF010895EE0FFF1F05907B
:10115000F491E02D09945058BB27AA270E94C30898
:101160000C943D0A0E942F0A38F00E94360A20F0A3
:1011700039F49F3F19F426F40C942C0A0EF4E095F0
:10118000E7FB0C94260AE92F0E944E0A58F3BA177F
:10119000620773078407950720F079F4A6F50C948D
:1011A000700A0EF4E0950B2EBA2FA02D0B01B90199
:1011B00090010C01CA01A0011124FF27591B99F0CD
:1011C000593F50F4503E68F11A16F040A22F232FD9
:1011D000342F4427585FF3CF469537952795A79529
:1011E000F0405395C9F77EF41F16BA0B620B730BD0
:1011F000840BBAF09150A1F0FF0FBB1F661F771F41
:10120000881FC2F70EC0BA0F621F731F841F48F4F5
:10121000879577956795B795F7959E3F08F0B0CF7E
:101220009395880F08F09927EE0F97958795089565
:101230000E94020A08F481E008950E9431090C948A
:101240003D0A0E94360A58F00E942F0A40F029F405
:101250005F3F29F00C94260A51110C94710A0C94EA
:101260002C0A0E944E0A68F39923B1F3552391F397
:10127000951B550BBB27AA2762177307840738F005
:101280009F5F5F4F220F331F441FAA1FA9F335D062
:101290000E2E3AF0E0E832D091505040E695001C16
:1012A000CAF72BD0FE2F29D0660F771F881FBB1FD0
:1012B000261737074807AB07B0E809F0BB0B802DAE
:1012C000BF01FF2793585F4F3AF09E3F510578F0DA
:1012D0000C94260A0C94710A5F3FE4F3983ED4F311
:1012E000869577956795B795F7959F5FC9F7880FAE
:1012F000911D9695879597F90895E1E0660F771F00
:10130000881FBB1F621773078407BA0720F0621B90
:10131000730B840BBA0BEE1F88F7E09508950E94BB
:1013200096096894B1110C94710A08950E94560AA6
:1013300088F09F5798F0B92F9927B751B0F0E1F096
:10134000660F771F881F991F1AF0BA95C9F714C046
:10135000B13091F00E94700AB1E008950C94700AC7
:10136000672F782F8827B85F39F0B93FCCF386957F
:1013700077956795B395D9F73EF4909580957095DC
:1013800061957F4F8F4F9F4F0895E89409C097FB59
:101390003EF490958095709561957F4F8F4F9F4F4C
:1013A0009923A9F0F92F96E9BB279395F695879590
:1013B00077956795B795F111F8CFFAF4BB0F11F453
:1013C00060FF1BC06F5F7F4F8F4F9F4F16C08823FA
:1013D00011F096E911C0772321F09EE8872F762F30
:1013E00005C0662371F096E8862F70E060E02AF071
:1013F0009A95660F771F881FDAF7880F969587955D
:1014000097F90895990F0008550FAA0BE0E8FEEF31
:1014100016161706E807F907C0F012161306E407B8
:10142000F50798F0621B730B840B950B39F40A26B1
:1014300061F0232B242B252B21F408950A2609F48F
:10144000A140A6958FEF811D811D089597F99F6793
:1014500080E870E060E008959FEF80EC089500243C
:101460000A941616170618060906089500240A9409
:1014700012161306140605060895092E0394000C8F
:1014800011F4882352F0BB0F40F4BF2B11F460FF1E
:1014900004C06F5F7F4F8F4F9F4F089557FD905847
:1014A000440F551F59F05F3F71F04795880F97FB28
:1014B000991F61F09F3F79F08795089512161306E2
:1014C0001406551FF2CF4695F1DF08C01616170611
:1014D0001806991FF1CF8695710561050894089546
:1014E000E894BB2766277727CB0197F908950E94D8
:1014F000020A08F48FEF08950E948F0A0C943D0AA7
:101500000E942F0A38F00E94360A20F0952311F02D
:101510000C94260A0C942C0A11240C94710A0E9433
:101520004E0A70F3959FC1F3950F50E0551F629FCF
:10153000F001729FBB27F00DB11D639FAA27F00D2C
:10154000B11DAA1F649F6627B00DA11D661F829F53
:101550002227B00DA11D621F739FB00DA11D621F38
:10156000839FA00D611D221F749F3327A00D611D55
:10157000231F849F600D211D822F762F6A2F112437
:101580009F5750409AF0F1F088234AF0EE0FFF1F6A
:10159000BB1F661F771F881F91505040A9F79E3FC1
:1015A000510580F00C94260A0C94710A5F3FE4F315
:1015B000983ED4F3869577956795B795F795E79517
:1015C0009F5FC1F7FE2B880F911D9695879597F920
:1015D00008950E94020A880B990B0895F894FFCF92
:1015E0001E061E0600000000D9023C049A022603D3
:1015F0006C02860278020D0A006E616E00696E66EA
:06160000006F7666000099
:00000001FF
