:100000000C94B2000C94DA000C94DA000C94DA0030
:100010000C94DA000C94DA000C94DA000C94DA00F8
:100020000C94DA000C94DA000C94DA000C94DA00E8
:100030000C94DA000C94DA000C94DA000C94DA00D8
:100040000C9499160C94DA000C94A5150C94D71501
:100050000C94DA000C94DA000C94DA000C94DA00B8
:100060000C94DA000C94DA0000407A10F35A00A0E5
:10007000724E18090010A5D4E80000E87648170071
:1000800000E40B54020000CA9A3B000000E1F505B1
:10009000000080969800000040420F000000A086FB
:1000A00001000000102700000000E803000000002D
:1000B0006400000000000A000000000001000000D1
:1000C00000002C76D888DC674F0823DFC1DFAE59EB
:1000D000E1B1B796E5E3E453C63AE651997696E87E
:1000E000E6C28426EB898C9B62ED407C6FFCEFBC02
:1000F0009C9F40F2BAA56FA5F490055A2AF75C932D
:100100006B6CF9676DC11BFCE0E40D47FEF520E662
:10011000B500D0ED902E0300943577050080841E45
:10012000080000204E0A000000C80C333333330FA0
:10013000986E12831141EF8D2114893BE65516CF3D
:10014000FEE6DB18D1844B381BF77C1D901DA4BB49
:10015000E424203284725E228100C9F124ECA1E5FE
:100160003D27071611241FBECFEFD8E0DEBFCDBF5D
:1001700011E0A0E0B1E0E0ECFFE302C005900D92D9
:10018000AA34B107D9F721E0AAE4B1E001C01D9279
:10019000AE3FB207E1F710E0C2EBD0E004C0219718
:1001A000FE010E945D17C13BD107C9F70E948A1664
:1001B0000C94DE1F0C94000026E040E855E260E05D
:1001C00070E084E591E00C944015AF92BF92CF921D
:1001D000DF92EF92FF920F931F93CF93DF93CDB7F0
:1001E000DEB7C456D1090FB6F894DEBF0FBECDBF3F
:1001F00080910C010E941E17BC01990F880B990B6E
:100200000E9444186B017C0120E030E040EA51E498
:100210006091060170910701809108019091090198
:100220000E94F918A70196010E94641720E030E0AF
:1002300048EA51E40E94D0179B01AC01609306018B
:10024000709307018093080190930901C701B601DB
:100250000E9463176B017C0120E030E0A9010E943D
:10026000F41818163CF420E030E048E452E4C701EA
:10027000B60107C0C701B601905820E030E048E45D
:1002800052E40E94F9186B017C0120E030E040EA62
:1002900050E4609150017091510180915201909110
:1002A00053010E94F918A70196010E94641720E0EB
:1002B00030E040EC50E40E94D0176B017C01609369
:1002C000500170935101809352019093530120E0AB
:1002D00030E040EA51E460914C0170914D01809111
:1002E0004E0190914F010E94F918A70196010E94BA
:1002F000641720E030E048EA51E40E94D017609390
:100300004C0170934D0180934E0190934F012091C9
:100310004A0130914B012F5F3F4F293E43E03407A4
:100320002CF430934B0120934A0161C010924B0191
:1003300010924A017E01E3E3EE0EF11C870122E0F8
:1003400042E00E9466196FE071E0C7010E94B71A8F
:10035000F70101900020E9F78F0101501109809108
:100360000A010E941E178E3A91406CF080910A019A
:100370000E941E178E5A9140BC01990F880B990B51
:100380000E94441803C060E070E0CB0122E042E02C
:100390000E946619C7010E9429145C0160E170E0A7
:1003A0000E9409026C018E010F5F1F4F82E3F8016A
:1003B00011928A95E9F7DF92CF92FF92EF9281E155
:1003C00091E09F938F931F930F930E94C21AB801DD
:1003D00084E591E00E947716C5010E941E1AC601AD
:1003E0000E941E1A0FB6F894DEBF0FBECDBFCC59C7
:1003F000DF4F0FB6F894DEBF0FBECDBFDF91CF91B8
:100400001F910F91FF90EF90DF90CF90BF90AF9032
:100410000895EF92FF920F931F93CF93DF938C0178
:100420007B01EB01CC0FDD1FCE0101960E948619E6
:100430009C01A801BA01601B710B6E157F05CCF4FD
:10044000DA01ED91AD01AE2FB0E064E0B595A7956E
:100450006A95E1F7A95EBE4F6C91D9016C93EF707C
:10046000F0E0E95EFE4F608111966C932E5F3F4F86
:10047000E1CFC80FD91F1882DF91CF911F910F9143
:10048000FF90EF9008952F923F924F925F926F925C
:100490007F928F929F92AF92BF92CF92DF92EF9214
:1004A000FF920F931F93CF93DF93CDB7DEB7C8575B
:1004B000D1090FB6F894DEBF0FBECDBFE9969FAF4E
:1004C0008EAFE997E7967FAF6EAFE79767965FAF1E
:1004D0004EAF6797DC0118968D909D90AD90BC90C3
:1004E0001B9765968CAE9DAEAEAEBFAE65971C9663
:1004F0008D909D90AD90BC901F9789829A82AB821F
:10050000BC8250968D909D90AD90BC9053978D82FB
:100510009E82AF82B88654968D909D90AD90BC908F
:10052000579789869A86AB86BC86A85ABF4F69962C
:10053000BFAFAEAF6997FC01E45AFF4F6B96FFAFB8
:10054000EEAF6B978C01005A1F4F6D961FAF0EAF29
:100550006D979C012C593F4F6F963FAF2EAF6F9711
:1005600088599F4FA1969FAF8EAFA197E996AEADE8
:10057000BFADE997A459BF4FA396BFAFAEAFA39746
:10058000E996EEADFFADE997E059FF4FA596FFAFB5
:10059000EEAFA597E9960EAD1FADE9970C581F4F2A
:1005A000A7961FAF0EAFA797E9962EAC3FACE99781
:1005B00018E7210E311CE9962EAD3FADE99724587E
:1005C0003F4FA9963FAF2EAFA997E9968EAD9FAD4D
:1005D000E99780589F4FAB969FAF8EAFAB97E99648
:1005E000AEADBFADE997AC57BF4FAD96BFAFAEAFA5
:1005F000AD97E996EEADFFADE997E857FF4FAF969F
:10060000FFAFEEAFAF97E9960EAD1FADE997045778
:100610001F4FE1961FAF0EAFE197E9962EAD3FADAC
:10062000E99720573F4FE3963FAF2EAFE397E99608
:100630008EAD9FADE9978C569F4FE5969FAF8EAFDD
:10064000E597E796AEADBFADE7978D909D90AD90E5
:10065000BC908D869E86AF86B88A6996EEADFFAD5A
:10066000699780829182A282B38289859A85AB85BF
:10067000BC858D809E80AF80B88488259925AA2569
:10068000BB25A980BA80CB80DC808A219B21AC214C
:10069000BD2149855A856B857C85482759276A275E
:1006A0007B2765968CAD9DADAEADBFAD6597885887
:1006B0009B45A549B8420D851E852F853889080FB1
:1006C000191F2A1F3B1FDB01CA01800F911FA21FA8
:1006D000B31F8C019D0147E0000F111F221F331F24
:1006E0004A95D1F759E1B695A795979587955A956B
:1006F000D1F7802B912BA22BB32BB601A501480F6C
:10070000591F6A1F7B1FE796AEADBFADE7971496E2
:10071000CD90DD90ED90FC901797C98ADA8AEB8A2C
:10072000FC8A6B96EEADFFAD6B97C082D182E28200
:10073000F3828D819E81AF81B88589809A80AB805C
:10074000BC8088259925AA25BB2584239523A6232B
:10075000B7238D809E80AF80B88488269926AA26EC
:10076000BB2689859A85AB85BC858A5A9844A8435F
:10077000B74197018601080F191F2A1F3B1FD5019A
:10078000C401800F911FA21FB31F8C019D01ECE0DB
:10079000000F111F221F331FEA95D1F7F4E1B69520
:1007A000A79597958795FA95D1F7802B912BA22B3A
:1007B000B32B4C015D01840E951EA61EB71EE79655
:1007C000AEADBFADE7971896CD90DD90ED90FC9063
:1007D0001B97CD8ADE8AEF8AF88E6D96EEADFFAD5F
:1007E0006D97C082D182E282F38289819A81AB8146
:1007F000BC8184279527A627B72788219921AA217C
:10080000BB21C980DA80EB80FC80C826D926EA2685
:10081000FB268D819E81AF81B88585529F48AF4D63
:10082000BB4D0D891E892F89388D080F191F2A1F6E
:100830003B1FD701C601800F911FA21FB31F8C0160
:100840009D01EFE03695279517950795EA95D1F725
:10085000F1E1880F991FAA1FBB1FFA95D1F7802BD2
:10086000912BA22BB32B6C017D01C80CD91CEA1C67
:10087000FB1CE796AEADBFADE7971C960D911D91A1
:100880002D913C911F97098F1A8F2B8F3C8F6F965C
:10089000EEADFFAD6F970083118322833383DB01BD
:1008A000CA0188259925AA25BB258C219D21AE2129
:1008B000BF218C019D010427152726273727898111
:1008C0009A81AB81BC8182519143A244BE43498C41
:1008D0005A8C6B8C7C8C480E591E6A1E7B1ED9016B
:1008E000C801840D951DA61DB71D2C013D011AE000
:1008F00076946794579447941A95D1F706E1880F38
:10090000991FAA1FBB1F0A95D1F784299529A629EB
:10091000B7298C019D010C0D1D1D2E1D3F1DE79655
:10092000AEADBFADE79750968D919D910D90BC9166
:10093000A02D8D8F9E8FAF8FB8A3A196EEADFFAD8A
:10094000A19780839183A283B383240135014C2432
:100950005D246E247F244022512262227322482487
:1009600059246A247B248155904FA348BA40480FEC
:10097000591F6A1F7B1F440E551E661E771ED3012A
:10098000C20147E0880F991FAA1FBB1F4A95D1F7E4
:1009900059E176946794579447945A95D1F7482A29
:1009A000592A6A2A7B2A400E511E621E731EE79640
:1009B000AEADBFADE79754964D915D916D917C9131
:1009C000579749A35AA36BA37CA3A396EEADFFADA3
:1009D000A3974083518362837383B701A6014027A5
:1009E00051276227732744215521662177214C2501
:1009F0005D256E257F2589A19AA1ABA1BCA1865D4D
:100A00009943A847B84B880E991EAA1EBB1E480DD5
:100A1000591D6A1D7B1DDB01CA01ECE0880F991F7F
:100A2000AA1FBB1FEA95D1F7F4E176956795579514
:100A30004795FA95D1F7482B592B6A2B7B2B440D00
:100A4000551D661D771DE796AEADBFADE79758966D
:100A50008D909D90AD90BC905B978DA29EA2AFA211
:100A6000B8A6A596EEADFFADA59780829182A28231
:100A7000B3824801590184249524A624B7248422F2
:100A80009522A622B72280269126A226B3268DA1E2
:100A90009EA1AFA1B8A58D5E994BAF4CB745C80ECE
:100AA000D91EEA1EFB1E8C0C9D1CAE1CBF1CD50162
:100AB000C401EFE0B695A79597958795EA95D1F78C
:100AC000F1E1880C991CAA1CBB1CFA95D1F7882A65
:100AD000992AAA2ABB2A840E951EA61EB71EE7963F
:100AE000AEADBFADE7975C96CD90DD90ED90FC90FC
:100AF0005F97C9A6DAA6EBA6FCA6A796EEADFFAD5A
:100B0000A797C082D182E282F38273016201C42678
:100B1000D526E626F726C820D920EA20FB20C424C3
:100B2000D524E624F72489A59AA5ABA5BCA58F5F9B
:100B30009A46A94BB240080F191F2A1F3B1FC00E2F
:100B4000D11EE21EF31ED701C6011AE0B695A79585
:100B5000979587951A95D1F706E1CC0CDD1CEE1C14
:100B6000FF1C0A95D1F7C82AD92AEA2AFB2AC80C01
:100B7000D91CEA1CFB1CE796AEADBFADE79790967B
:100B80000D911D912D913C9193970DA71EA72FA715
:100B900038ABF10100831183228333838A019B01E7
:100BA000082519252A253B250C211D212E213F2111
:100BB00004271527262737278DA59EA5AFA5B8A9F9
:100BC00088529746AF47B649480E591E6A1E7B1E8B
:100BD000040D151D261D371DD901C801E7E0880F3A
:100BE000991FAA1FBB1FEA95D1F7F9E13695279502
:100BF00017950795FA95D1F7082B192B2A2B3B2B24
:100C00000C0D1D1D2E1D3F1DE796AEADBFADE79728
:100C100094968D919D910D90BC91A02D89AB9AAB2E
:100C2000ABABBCABA996EEADFFADA997808391832A
:100C3000A283B383240135014C245D246E247F24D8
:100C40004022512262227322482459246A247B24A0
:100C500081559840AB4BB447480F591F6A1F7B1F03
:100C6000440E551E661E771ED301C2014CE0880F4C
:100C7000991FAA1FBB1F4A95D1F754E17694679438
:100C8000579447945A95D1F7482A592A6A2A7B2AB9
:100C9000400E511E621E731EE796AEADBFADE797C4
:100CA00098964D915D916D917C919B974DAB5EAB0C
:100CB0006FAB78AFAB96EEADFFADAB974083518392
:100CC00062837383B701A6014027512762277327E8
:100CD00044215521662177214C255D256E257F25F0
:100CE0008DA99EA9AFA9B8AD8F54944AA109B109A5
:100CF000880E991EAA1EBB1E480D591D6A1D7B1D1C
:100D0000DB01CA01EFE0B695A79597958795EA951F
:100D1000D1F7F1E1440F551F661F771FFA95D1F700
:100D2000482B592B6A2B7B2B440D551D661D771DB7
:100D3000E796AEADBFADE7979C968D909D90AD9038
:100D4000BC909F9789AE9AAEABAEBCAEAD96EEAD01
:100D5000FFADAD9780829182A282B3824801590192
:100D600084249524A624B72484229522A622B7227F
:100D700080269126A226B32689AD9AADABADBCAD37
:100D800082549842A34AB647C80ED91EEA1EFB1EDB
:100D90008C0C9D1CAE1CBF1CD501C401EAE0B695AD
:100DA000A79597958795EA95D1F7F6E1880C991C58
:100DB000AA1CBB1CFA95D1F7882A992AAA2ABB2A11
:100DC000840E951EA61EB71EE796AEADBFADE79783
:100DD000D096CD90DD90ED90FC90D3972196CCAE3F
:100DE000DDAEEEAEFFAE2197AF96EEADFFADAF97A5
:100DF000C082D182E282F38273016201C426D526C9
:100E0000E626F726C820D920EA20FB20C424D524D2
:100E1000E624F72421968CAD9DADAEADBFAD2197F4
:100E20008E5D9E4EAF46B449080F191F2A1F3B1F07
:100E3000C00ED11EE21EF31E97018601A7E0000F2F
:100E4000111F221F331FAA95D1F7B9E1F694E79439
:100E5000D794C794BA95D1F7C02AD12AE22AF32AA7
:100E6000C80CD91CEA1CFB1CE796AEADBFADE797DA
:100E7000D4960D911D912D913C91D79725960CAF4D
:100E80001DAF2EAF3FAF2597E196EEADFFADE197D9
:100E900000831183228333838A019B01082519254E
:100EA0002A253B250C211D212E213F210427152712
:100EB0002627372725968CAD9DADAEADBFAD2597C6
:100EC0008D569E48A746B240480E591E6A1E7B1E8C
:100ED000040D151D261D371DD901C801ECE0880F32
:100EE000991FAA1FBB1FEA95D1F7F4E13695279504
:100EF00017950795FA95D1F7082B192B2A2B3B2B21
:100F00000C0D1D1D2E1D3F1DE796AEADBFADE79725
:100F1000D8968D919D910D90BC91A02D29968CAF66
:100F20009DAFAEAFBFAF2997E396EEADFFADE397B0
:100F300080839183A283B383240135014C245D24F3
:100F40006E247F2440225122622273224824592495
:100F50006A247B2482579C4BA648B945480F591FE9
:100F60006A1F7B1F440E551E661E771ED301C201E9
:100F70004FE0B695A795979587954A95D1F751E19A
:100F8000440C551C661C771C5A95D1F7482A592ADF
:100F90006A2A7B2A400E511E621E731EE796AEAD72
:100FA000BFADE797DC964D915D916D917C91DF9798
:100FB0002D964CAF5DAF6EAF7FAF2D97E596EEAD42
:100FC000FFADE5974083518362837383B701A60128
:100FD0004027512762277327442155216621772115
:100FE0004C255D256E257F252D968CAD9DADAEAD36
:100FF000BFAD2D978F5D974FAB44B64B880E991EB2
:10100000AA1EBB1E480D591D6A1D7B1D4A015B01AE
:10101000EAE0B694A79497948794EA95D1F7F6E11D
:10102000440F551F661F771FFA95D1F74829592994
:101030006A297B29440D551D661D771D5301420108
:1010400084269526A626B72680229122A222B322A4
:1010500084249524A624B72489899A89AB89BC89DC
:101060008E599A4DA14EB940C80ED91EEA1EFB1EDC
:101070008C0C9D1CAE1CBF1C75016401A5E0CC0C42
:10108000DD1CEE1CFF1CAA95D1F7BBE1B694A7941A
:1010900097948794BA95D1F78C289D28AE28BF28BD
:1010A000840E951EA61EB71E6A017B01C824D92492
:1010B000EA24FB24C420D520E620F720C426D52628
:1010C000E626F7268DA19EA1AFA1B8A5805C9C4421
:1010D000AF4BBF43080F191F2A1F3B1FC00ED11E65
:1010E000E21EF31E9701860189E0000F111F221FE7
:1010F000331F8A95D1F797E1F694E794D794C79474
:101100009A95D1F7C02AD12AE22AF32AC80CD91C11
:10111000EA1CFB1C950184010C251D252E253F256D
:101120000423152326233723082519252A253B25A3
:1011300089AD9AADABADBCAD8F5A954AA14AB94DB8
:10114000480E591E6A1E7B1E040D151D261D371DD7
:10115000D901C801EEE0880F991FAA1FBB1FEA95AD
:10116000D1F7F2E13695279517950795FA95D1F7BE
:10117000082B192B2A2B3B2B0C0D1D1D2E1D3F1D43
:101180002601370140265126622673264820592021
:101190006A207B204C245D246E247F248D859E85CF
:1011A000AF85B88986559843A944B641480F591F61
:1011B0006A1F7B1F440E551E661E771ED301C20197
:1011C0004CE0B695A795979587954A95D1F754E148
:1011D000440C551C661C771C5A95D1F7482A592A8D
:1011E0006A2A7B2A400E511E621E731EB901A80195
:1011F00044255525662577254C215D216E217F21CB
:10120000402751276227732789A19AA1ABA1BCA1CE
:10121000835A9F4EA04DB942880E991EAA1EBB1E2E
:10122000480D591D6A1D7B1D4A015B01E5E0880CD4
:10123000991CAA1CBB1CEA95D1F7FBE17695679532
:1012400057954795FA95D1F7482959296A297B2955
:10125000440D551D661D771D5301420184269526B8
:10126000A626B72680229122A222B3228424952486
:10127000A624B7248DA99EA9AFA9B8AD8D5A9B4EBF
:10128000AB4BBD4FC80ED91EEA1EFB1E8C0C9D1C1D
:10129000AE1CBF1C75016401A9E0CC0CDD1CEE1C6A
:1012A000FF1CAA95D1F7B7E1B694A79497948794B9
:1012B000BA95D1F78C289D28AE28BF28840E951E9C
:1012C000A61EB71E6A017B01C824D924EA24FB2488
:1012D000C420D520E620F720C426D526E626F7260A
:1012E0002D968CAD9DADAEADBFAD2D978F5799416D
:1012F000AE45B742080F191F2A1F3B1FC00ED11E53
:10130000E21EF31E970186018EE0000F111F221FBF
:10131000331F8A95D1F792E1F694E794D794C79456
:101320009A95D1F7C02AD12AE22AF32AC80CD91CEF
:10133000EA1CFB1C950184010C251D252E253F254B
:101340000423152326233723082519252A253B2581
:101350008D8D9E8DAF8DB8A188539440AC42B8411D
:10136000480E591E6A1E7B1E040D151D261D371DB5
:10137000D901C801ECE0B695A79597958795EA95B0
:10138000D1F7F4E1000F111F221F331FFA95D1F797
:10139000082B192B2A2B3B2B0C0D1D1D2E1D3F1D21
:1013A00026013701402651266226732648205920FF
:1013B0006A207B204C245D246E247F2489A99AA96D
:1013C000ABA9BCA98A519243AE41BE4D480F591FEB
:1013D0006A1F7B1F440E551E661E771ED301C20175
:1013E00045E0880F991FAA1FBB1F4A95D1F75BE103
:1013F00076946794579447945A95D1F7482A592A76
:101400006A2A7B2A400E511E621E731EB901A80172
:1014100044255525662577254C215D216E217F21A8
:10142000402751276227732729968CAD9DADAEAD1D
:10143000BFAD29978A52984FA84CBC43880E991E7D
:10144000AA1EBB1E480D591D6A1D7B1D4A015B016A
:10145000E9E0880C991CAA1CBB1CEA95D1F7F7E1BE
:101460007695679557954795FA95D1F74829592963
:101470006A297B29440D551D661D771D53014201C4
:1014800084269526A626B72680229122A222B32260
:1014900084249524A624B724898D9A8DAB8DBC8D88
:1014A0008957924FAA42BB40C80ED91EEA1EFB1EA6
:1014B0008C0C9D1CAE1CBF1C75016401AEE0CC0CF5
:1014C000DD1CEE1CFF1CAA95D1F7B2E1B694A794DF
:1014D00097948794BA95D1F78C289D28AE28BF2879
:1014E000840E951EA61EB71E6A017B01C824D9244E
:1014F000EA24FB24C420D520E620F720C426D526E4
:10150000E626F7268DA59EA5AFA5B8A983519B4ECB
:10151000A54ABA4B080F191F2A1F3B1FC00ED11E28
:10152000E21EF31E970186018CE0369527951795EC
:1015300007958A95D1F794E1CC0CDD1CEE1CFF1CBD
:101540009A95D1F70C291D292E293F29080D191D1F
:101550002A1D3B1D75016401C026D126E226F32613
:10156000C422D522E622F722C824D924EA24FB2467
:1015700025968CAD9DADAEADBFAD25978B5F9641E9
:10158000AC41B645480E591E6A1E7B1EC40CD51CC4
:10159000E61CF71CD701C601E5E0880F991FAA1FBA
:1015A000BB1FEA95D1F7FBE1F694E794D794C79473
:1015B000FA95D1F7C82AD92AEA2AFB2AC00ED11EE9
:1015C000E21EF31E280139014C245D246E247F2481
:1015D000482059206A207B20402651266226732607
:1015E0008D899E89AF89B88D88509C45A041B340B4
:1015F000480F591F6A1F7B1F440E551E661E771E1B
:10160000D301C20149E0880F991FAA1FBB1F4A9549
:10161000D1F757E176946794579447945A95D1F748
:10162000482A592A6A2A7B2AB301A2014C0D5D1D62
:101630006E1D7F1D26013701442655266626772616
:1016400040225122622273224C245D246E247F2486
:1016500089A59AA5ABA5BCA587529D4FA049B849BD
:10166000880E991EAA1EBB1E480C591C6A1C7B1CA6
:1016700053014201EEE0880C991CAA1CBB1CEA95A0
:10168000D1F7F2E17694679457944794FA95D1F79D
:10169000482859286A287B2853014201840E951E48
:1016A000A61EB71E61968CAE9DAEAEAEBFAE619764
:1016B00084269526A626B7262601370148205920DC
:1016C0006A207B20442655266626772621968CADF7
:1016D0009DADAEADBFAD21978657934BA54DB2479B
:1016E000080F191F2A1F3B1F400E511E621E731E3A
:1016F00093018201ACE03695279517950795AA9539
:10170000D1F7B4E1440C551C661C771CBA95D1F78F
:10171000402A512A622A732A61960CAD1DAD2EAD66
:101720003FAD6197400E511E621E731E09A11AA1A2
:101730002BA13CA10E5B164C25403109C00ED11ED9
:10174000E21EF31E84249524A624B724C80CD91CB9
:10175000EA1CFB1CD701C60114E0880F991FAA1FC1
:10176000BB1F1A95D1F70CE1F694E794D794C79470
:101770000A95D1F7C82AD92AEA2AFB2A4601570135
:10178000840C951CA61CB71C61960CAD1DAD2EAD2E
:101790003FAD6197042515252625372508251925F0
:1017A0002A253B25CDA4DEA4EFA4F8A88FE7C81A0C
:1017B00089E0D80A8EE8E80A88E7F80A4C0D5D1D32
:1017C0006E1D7F1D040F151F261F371FD901C8016D
:1017D0004BE0880F991FAA1FBB1F4A95D1F755E10F
:1017E00036952795179507955A95D1F7082B192BFC
:1017F0002A2B3B2BB901A801480D591D6A1D7B1DE1
:1018000073016201C824D924EA24FB24C426D52606
:10181000E626F72609AD1AAD2BAD3CAD0E5D1E498F
:101820002246324961968CAD9DADAEADBFAD61979C
:10183000080F191F2A1F3B1F0C0D1D1D2E1D3F1DBC
:10184000D80189019D01040F151F261F371F75013F
:101850006401C426D526E626F726C026D126E22630
:10186000F32629968CAD9DADAEADBFAD2997845FB3
:10187000974CAA41B240480E591E6A1E7B1EC40CEA
:10188000D51CE61CF71CD701C601E9E0B695A79563
:1018900097958795EA95D1F7F7E1CC0CDD1CEE1C06
:1018A000FF1CFA95D1F7C82AD92AEA2AFB2A260171
:1018B0003701400E511E621E731E6A017B01C02655
:1018C000D126E226F326C424D524E624F7248989E8
:1018D0009A89AB89BC898C5B9541A144BB45880E34
:1018E000991EAA1EBB1EC80CD91CEA1CFB1C460173
:1018F0005701A4E0880C991CAA1CBB1CAA95D1F71F
:10190000BCE1F694E794D794C794BA95D1F7C82868
:10191000D928EA28FB28C40CD51CE61CF71C480172
:10192000590184249524A624B7248C249D24AE2414
:10193000BF248D8D9E8DAF8DB8A187559043A14258
:10194000B44B480F591F6A1F7B1F840E951EA61E9D
:10195000B71ED501C4014BE0880F991FAA1FBB1FFA
:101960004A95D1F755E1B694A794979487945A95E0
:10197000D1F7882A992AAA2ABB2A8C0C9D1CAE1C56
:10198000BF1CB301A2014C255D256E257F2548258E
:1019900059256A257B2589A59AA5ABA5BCA5805AA2
:1019A000944BA444B940080F191F2A1F3B1F400F36
:1019B000511F621F731FFA01AB01BF01480D591D72
:1019C0006A1D7B1D97018601082519252A253B25BF
:1019D00004271527262737278DA99EA9AFA9B8ADBB
:1019E00080599344A044B144480E591E6A1E7B1E80
:1019F000040D151D261D371DD901C801E9E0B69556
:101A0000A79597958795EA95D1F7F7E1000F111FF4
:101A1000221F331FFA95D1F7082B192B2A2B3B2BAA
:101A200028013901440E551E661E771E950184015A
:101A3000042715272627372704251525262537258A
:101A400025968CAD9DADAEADBFAD25978A5391481F
:101A5000A446B74DC80ED91EEA1EFB1E0C0D1D1D57
:101A60002E1D3F1D68017901A4E0CC0CDD1CEE1C8D
:101A7000FF1CAA95D1F7BCE13695279517950795D8
:101A8000BA95D1F70C291D292E293F29040D151DC2
:101A9000261D371D6A017B01C424D524E624F724C2
:101AA000C026D126E226F3268D859E85AF85B8898E
:101AB0008650984DAE45B541880E991EAA1EBB1E94
:101AC000C80CD91CEA1CFB1C460157018BE0880C92
:101AD000991CAA1CBB1C8A95D1F795E1F694E79452
:101AE000D794C7949A95D1F7C828D928EA28FB2813
:101AF000C00ED11EE21EF31E530142018026912624
:101B0000A226B3268C249D24AE24BF24898D9A8DD1
:101B1000AB8DBC8D8B579F4CA041BB42480F591FCA
:101B20006A1F7B1F840E951EA61EB71EA4014501C9
:101B30005A018C0C9D1CAE1CBF1CB901A8014C2580
:101B40005D256E257F25482559256A257B258DA194
:101B50009EA1AFA1B8A58B5F924EA747BB4F480E81
:101B6000591E6A1E7B1E440D551D661D771DDB0127
:101B7000CA01E9E0B695A79597958795EA95D1F7BB
:101B8000F7E1440F551F661F771FFA95D1F7482BD1
:101B9000592B6A2B7B2B2A013B01480C591C6A1CD0
:101BA0007B1CB701A601482559256A257B254425BC
:101BB00055256625772589A99AA9ABA9BCA9875C73
:101BC0009F42AB42B642080F191F2A1F3B1F400F0E
:101BD000511F621F731F8A019B01A4E0000F111F98
:101BE000221F331FAA95D1F7BCE1769567955795CB
:101BF0004795BA95D1F7402B512B622B732B440D8F
:101C0000551D661D771D9501840104251525262582
:101C10003725042715272627372721968CAD9DAD1C
:101C2000AEADBFAD21978B519646A442B941C80EC7
:101C3000D91EEA1EFB1E0C0D1D1D2E1D3F1D680129
:101C400079018BE0CC0CDD1CEE1CFF1C8A95D1F7D2
:101C500095E136952795179507959A95D1F70C2913
:101C60001D292E293F29040F151F261F371F730119
:101C70006201C426D526E626F726C026D126E2260E
:101C8000F3262D968CAD9DADAEADBFAD2D97885092
:101C90009348AD45B04E880E991EAA1EBB1E8C0CF3
:101CA0009D1CAE1CBF1CC40145015C01800E911E31
:101CB000A21EB31E6A017B01C026D126E226F326AE
:101CC000C824D924EA24FB248D899E89AF89B88D44
:101CD0008B59994AA345BB43480E591E6A1E7B1E69
:101CE000C40CD51CE61CF71CD701C601E9E0B6956B
:101CF000A79597958795EA95D1F7F7E1CC0CDD1C70
:101D0000EE1CFF1CFA95D1F7C82AD92AEA2AFB2A29
:101D1000C80CD91CEA1CFB1CD901C8018095909500
:101D2000A095B0958C299D29AE29BF298825992594
:101D3000AA25BB254D845E846F847888ECEB4E1A0F
:101D4000EDED5E0AE6ED6E0AEBE07E0A440D551DF0
:101D5000661D771D840F951FA61FB71FAC01BD011F
:101D6000E6E0440F551F661F771FEA95D1F7FAE1A9
:101D7000B695A79597958795FA95D1F7842B952BCE
:101D8000A62BB72BAC01BD014C0D5D1D6E1D7F1D3B
:101D9000D501C40180959095A095B095842B952B85
:101DA000A62BB72B8C259D25AE25BF2549A45AA46B
:101DB0006BA47CA4F9E64F1A5108F5ED6F0AFCEB11
:101DC0007F0A040D151D261D371D800F911FA21FB0
:101DD000B31F8C019D01EAE0000F111F221F331F6A
:101DE000EA95D1F7F6E1B695A79597958795FA9577
:101DF000D1F7802B912BA22BB32B8C019D01040FCB
:101E0000151F261F371F26013701409450946094F8
:101E10007094402A512A622A732A4426552666263F
:101E2000772629968CAD9DADAEADBFAD299789556E
:101E30009C4DAB46B445880E991EAA1EBB1E480C8D
:101E4000591C6A1C7B1C53014201AFE0880C991C91
:101E5000AA1CBB1CAA95D1F7B1E17694679457945C
:101E60004794BA95D1F784289528A628B728800EDC
:101E7000911EA21EB31EDB01CA0180959095A0950C
:101E8000B09588299929AA29BB2980279127A227BB
:101E9000B32749A05AA06BA07CA0E7EC4E1AEFE54F
:101EA0005E0AECE66E0AE3E07E0AC40CD51CE61C72
:101EB000F71C8C0D9D1DAE1DBF1D6C017D01EBE05F
:101EC000F694E794D794C794EA95D1F7F5E1880F93
:101ED000991FAA1FBB1FFA95D1F78C299D29AE29FE
:101EE000BF296C017D01C80CD91CEA1CFB1C280110
:101EF000390140945094609470944C285D286E2869
:101F00007F28482459246A247B2421968CAD9DADDA
:101F1000AEADBFAD21978D53964AA44ABA49480F3A
:101F2000591F6A1F7B1F440E551E661E771ED30164
:101F3000C20146E0880F991FAA1FBB1F4A95D1F71F
:101F40005AE176946794579447945A95D1F7482A62
:101F5000592A6A2A7B2AB301A2014C0D5D1D6E1D10
:101F60007F1DD501C40180959095A095B095842BD7
:101F7000952BA62BB72B8C259D25AE25BF25498CEF
:101F80005A8C6B8C7C8CFEE64F1AF3E35F0AF3EFFE
:101F90006F0AF0E77F0A040D151D261D371D800FFF
:101FA000911FA21FB31F8C019D01EAE0000F111FBA
:101FB000221F331FEA95D1F7F6E1B695A7959795BD
:101FC0008795FA95D1F7802B912BA22BB32B8C01FF
:101FD0009D01040F151F261F371FD701C6018095CD
:101FE0009095A095B095802B912BA22BB32B842795
:101FF0009527A627B7274DA85EA86FA878ACE3E879
:102000004E1AEBE05E0AE0E16E0A7108840C951C42
:10201000A61CB71C880D991DAA1DBB1D4C015D0196
:10202000EFE0880C991CAA1CBB1CEA95D1F7F1E1E2
:10203000B695A79597958795FA95D1F78829992907
:10204000AA29BB294C015D01800E911EA21EB31E60
:10205000DB01CA0180959095A095B09588299929B2
:10206000AA29BB2980279127A227B32749885A8804
:102070006B887C88FFE24F1AF2EA5F0AFBE76F0A7F
:10208000FAE77F0AC40CD51CE61CF71C8C0D9D1DBD
:10209000AE1DBF1D6C017D01EBE0F694E794D79473
:1020A000C794EA95D1F7F5E1880F991FAA1FBB1FC6
:1020B000FA95D1F78C299D29AE29BF296C017D01A4
:1020C000C80CD91CEA1CFB1CD901C801809590954D
:1020D000A095B0958C299D29AE29BF2988259925E1
:1020E000AA25BB254DA45EA46FA478A8E1EB4E1AE7
:1020F000E1E85E0AE7E56E0AE0E97E0A440D551D57
:10210000661D771D840F951FA61FB71FAC01BD016B
:10211000E6E0440F551F661F771FEA95D1F7FAE1F5
:10212000B695A79597958795FA95D1F7842B952B1A
:10213000A62BB72BAC01BD014C0D5D1D6E1D7F1D87
:10214000D501C40180959095A095B095842B952BD1
:10215000A62BB72B8C259D25AE25BF252D964CACE7
:102160005DAC6EAC7FAC2D97F0E24F1AF9E15F0ADF
:10217000F3ED6F0AF1E07F0A040D151D261D371DD2
:10218000800F911FA21FB31F8C019D01EAE0000F79
:10219000111F221F331FEA95D1F7F6E1B695A795D7
:1021A00097958795FA95D1F7802B912BA22BB32B7E
:1021B0008C019D01040F151F261F371FD701C60173
:1021C00080959095A095B095802B912BA22BB32B49
:1021D00084279527A627B7274DA05EA06FA078A4D7
:1021E000ECEE4E1AECEB5E0AEEEF6E0AECE57E0AC0
:1021F000840C951CA61CB71C880D991DAA1DBB1D1F
:102200004C015D01EFE0880C991CAA1CBB1CEA95EF
:10221000D1F7F1E1B695A79597958795FA95D1F7FE
:1022200088299929AA29BB294C015D01800E911E9C
:10223000A21EB31EDB01CA0180959095A095B095B2
:1022400088299929AA29BB2980279127A227B32762
:1022500025964CAC5DAC6EAC7FAC2597FFE54F1A74
:10226000FEEE5F0AF7EF6F0AF1EB7F0AC40CD51C94
:10227000E61CF71C8C0D9D1DAE1DBF1D6C017D0164
:10228000EBE0F694E794D794C794EA95D1F7F5E19B
:10229000880F991FAA1FBB1FFA95D1F78C299D297A
:1022A000AE29BF296C017D01C80CD91CEA1CFB1C9E
:1022B000D901C80180959095A095B0958C299D294C
:1022C000AE29BF2988259925AA25BB254D8C5E8C72
:1022D0006F8C78A0EEE74E1AE1E85E0AECEA6E0A2F
:1022E000E8E07E0A440D551D661D771D840F951F7D
:1022F000A61FB71FAC01BD01E6E0440F551F661FC6
:10230000771FEA95D1F7FAE1B695A7959795879546
:10231000FA95D1F7842B952BA62BB72BAC01BD01D9
:102320004C0D5D1D6E1D7F1DD501C40180959095DE
:10233000A095B095842B952BA62BB72B8C259D258E
:10234000AE25BF2549AC5AAC6BAC7CACFBEC4F1A4C
:10235000FDE05F0AF5EC6F0AF2E47F0A040D151D3B
:10236000261D371D800F911FA21FB31F8C019D01D9
:10237000EAE0000F111F221F331FEA95D1F7F6E1A3
:10238000B695A79597958795FA95D1F7802B912BC0
:10239000A22BB32B8C019D01040F151F261F371F85
:1023A000D701C60180959095A095B095802B912B73
:1023B000A22BB32B84279527A627B7274D885E88A5
:1023C0006F88788CE5E44E1AEDE25E0AE8E26E0A68
:1023D000E5ED7E0A840C951CA61CB71C880D991D82
:1023E000AA1DBB1D4C015D01EFE0880C991CAA1CC5
:1023F000BB1CEA95D1F7F1E1B695A795979587951E
:10240000FA95D1F788299929AA29BB29800F911F0C
:10241000A21FB31F65968CAC9DACAEACBFAC6597EC
:10242000840E951EA61EB71E65968CAE9DAEAEAEF2
:10243000BFAE65974095509560957095482B592B88
:102440006A2B7B2B402751276227732789A89AA8DC
:10245000ABA8BCA8EFE68E1AECE29E0AE9E7AE0A4A
:10246000E4E1BE0AC80CD91CEA1CFB1C4C0D5D1D26
:102470006E1D7F1D2A013B01EBE076946794579413
:102480004794EA95D1F7F5E1440F551F661F771F72
:10249000FA95D1F74429552966297729480F591FFC
:1024A0006A1F7B1F89809A80AB80BC80840E951E3A
:1024B000A61EB71E89829A82AB82BC82AD80BE8086
:1024C000CF80D884A80EB91ECA1EDB1EAD82BE8284
:1024D000CF82D886C984DA84EB84FC84C00ED11EF6
:1024E000E21EF31EC986DA86EB86FC86E7960EAD01
:1024F0001FADE797005C1F4FE7961FAF0EAFE79742
:1025000067962EAD3FAD67972054310967963FAF70
:102510002EAF6797232B11F00C94210365964CADD9
:102520005DAD6EAD7FAD6597E996AEADBFADE99798
:1025300018964D935D936D937C931B9789809A8039
:10254000AB80BC801C968D929D92AD92BC921F97E1
:102550008D809E80AF80B88450968D929D92AD9272
:10256000BC925397FD01C48AD58AE68AF78AC801CE
:10257000C858DF4F0FB6F894DEBF0FBECDBFDF9156
:10258000CF911F910F91FF90EF90DF90CF90BF9070
:10259000AF909F908F907F906F905F904F903F9003
:1025A0002F900895CF93DF93FC0181E093E2A5E49F
:1025B000B7E680879187A287B38789E89BEAADEC6D
:1025C000BFEE84879587A687B7878EEF9CEDAAEB31
:1025D000B8E9808B918BA28BB38B86E794E5A2E35D
:1025E000B0E1848B958BA68BB78B108211821282FF
:1025F00013821482158216821782DF01A85ABF4FF8
:1026000080E4ED01982F19929A95E9F77896DF0109
:102610001D928A95E9F7DF91CF9108958F929F924D
:10262000AF92BF92EF92FF920F931F93CF93DF93DE
:10263000EC017B018A0188819981AA81BB8160E0DC
:1026400070E04C015D01840E951EA61EB71E2FE1A1
:10265000B22288829982AA82BB8288169906AA062B
:10266000BB0668F48C809D80AE80BF802FEF821AFD
:10267000920AA20AB20A8C829D82AE82BF828F73B6
:102680009927AA27BB270097A105B10531F120E4BE
:10269000822E912CA12CB12C881A990AAA0ABB0A65
:1026A0004896481559056A057B0528F4A801B70125
:1026B0008C0F9D1F22C0A401B7018C0F9D1F0E948B
:1026C000A71AE80CF91C0819190940E450E0BE01EA
:1026D000685E7F4FCE010E9443020034110548F02E
:1026E000A801407CB701CE010E9443027C010F7318
:1026F0001127A801B701CE014896DF91CF911F9114
:102700000F91FF90EF90BF90AF909F908F900C949F
:10271000A71AEF92FF920F931F93CF93DF938C0131
:10272000EB01488159816A817B814F735527662768
:102730007727DB01CA010196A11DB11DFE01E40F3F
:10274000F51F20E8208F40E450E060E070E0481B77
:10275000590B6A0B7B0B9E01285E3F4F7901483075
:10276000510561057105A0F4489660E070E08C0F9A
:102770009D1F0E94B01A40E450E0B701CE010E94B4
:10278000430240E450E060E070E080E090E0DC0173
:1027900048505109489660E070E08C0F9D1F0E94E0
:1027A000B01A88819981AA81BB8123E0880F991F83
:1027B000AA1FBB1F2A95D1F788839983AA83BB835D
:1027C000FE01E05BFF4F8083319690833196A083BA
:1027D0003196B0833C812D819E818F8131963083EB
:1027E00031962083319690833196808340E450E087
:1027F000B701CE010E9443028885F8018083898554
:1028000081838A8582838B8583838C8584838D8570
:1028100085838E8586838F8587838889808789894C
:1028200081878A8982878B8983878C8984878D8930
:1028300085878E8986878F89878788E9FE0111922F
:102840008A95E9F7DF91CF911F910F91FF90EF905B
:102850000895EF92FF920F931F93CF93DF93CDB71D
:10286000DEB7C859D1090FB6F894DEBF0FBECDBF91
:102870008C0180E190E00E9486197C01CE010196D6
:102880000E94D212F80101900020E9F73197AF01C0
:10289000401B510BB801CE0101960E940E13BE01E0
:1028A0006F5F7F4FC7010E948913C701C856DF4F72
:1028B0000FB6F894DEBF0FBECDBFDF91CF911F9151
:1028C0000F91FF90EF900895FC01918D228D892F3B
:1028D00090E0805C9F4F821B91098F739927089528
:1028E000FC01918D828D981731F0828DE80FF11DDA
:1028F000858D90E008958FEF9FEF0895FC01918DF5
:10290000828D981761F0828DDF01A80FB11D5D9651
:102910008C91928D9F5F9F73928F90E008958FEFBF
:102920009FEF0895FC01538D448D252F30E0842FB7
:1029300090E0821B930B541710F0CF9608950197E7
:1029400008958DEF95E1892B49F080E090E0892B87
:1029500029F00E94FD1581110C9400000895FC01DE
:10296000848DDF01A80FB11DA35ABF4F2C91848D18
:1029700090E001968F739927848FA689B7892C934D
:10298000A089B1898C91837080648C93938D848DA0
:10299000981306C00288F389E02D80818F7D8083A3
:1029A0000895EF92FF920F931F93CF93DF93EC0163
:1029B00081E0888F9B8D8C8D981305C0E889F989FB
:1029C000808185FD26C0F62E0B8D10E00F5F1F4F16
:1029D0000F731127E02E8C8DE8120CC00FB607FC88
:1029E000FACFE889F989808185FFF5CFCE010E9471
:1029F000AF14F1CF8B8DFE01E80FF11DE35AFF4FAD
:102A0000F0829FB7F8940B8FEA89FB8980818062FE
:102A10000AC09FB7F894EE89FF896083E889F98935
:102A200080818370806480839FBF81E090E0DF912C
:102A3000CF911F910F91FF90EF900895CF93DF9367
:102A4000EC01888D8823C9F0EA89FB89808185FDA6
:102A500005C0A889B9898C9186FD0FC00FB607FC07
:102A6000F5CF808185FFF2CFA889B9898C9185FF48
:102A7000EDCFCE010E94AF14E7CFDF91CF91089543
:102A8000CF92DF92EF92FF921F93CF93DF93EC01EF
:102A90006A017B01122FE889F98982E08083411560
:102AA000514E61057105B1F060E079E08DE390E091
:102AB000A70196010E943B17DA01C9010197A109FC
:102AC000B109B695A795979587959C01211580E149
:102AD0003807A8F0E889F989108260E874E88EE187
:102AE00090E0A70196010E943B17DA01C901019706
:102AF000A109B109B695A795979587959C01EC8595
:102B0000FD853083EE85FF852083188EEC89FD8955
:102B10001083EA89FB89808180618083EA89FB894F
:102B2000808188608083EA89FB89808180688083D6
:102B3000EA89FB8980818F7D8083DF91CF911F910E
:102B4000FF90EF90DF90CF9008951F920F920FB6F5
:102B50000F9211242F938F939F93EF93FF93E09104
:102B60006401F09165018081E0916A01F0916B014F
:102B700082FD12C0908180916D018F5F8F732091D3
:102B80006E01821751F0E0916D01F0E0EC5AFE4FBA
:102B9000958F80936D0101C08081FF91EF919F918E
:102BA0008F912F910F900FBE0F901F9018951F922D
:102BB0000F920FB60F9211242F933F934F935F9371
:102BC0006F937F938F939F93AF93BF93EF93FF93F5
:102BD00084E591E00E94AF14FF91EF91BF91AF9116
:102BE0009F918F917F916F915F914F913F912F9125
:102BF0000F900FBE0F901F90189584E591E00E94F2
:102C0000641421E0892B09F420E0822F0895E4E583
:102C1000F1E01382128288EE93E0A0E0B0E08483BA
:102C20009583A683B7838CE291E09183808385ECC2
:102C300090E09587848784EC90E09787868780EC86
:102C400090E0918B808B81EC90E0938B828B82EC77
:102C500090E0958B848B86EC90E0978B868B118E21
:102C6000128E138E148E0895CF92DF92EF92FF9200
:102C70000F931F93CF93DF936C017A018B01C0E018
:102C8000D0E0CE15DF0581F0D8016D918D01D60120
:102C9000ED91FC910190F081E02DC6010995892B01
:102CA00011F02196EECF7E01C701DF91CF911F91E8
:102CB0000F91FF90EF90DF90CF900895611571050F
:102CC00079F0FB0101900020E9F73197AF01461B35
:102CD000570BDC01ED91FC910280F381E02D09940A
:102CE00080E090E008956AE371E00C945E160F9323
:102CF0001F93CF93DF93EC010E945E168C01CE01EF
:102D00000E947316800F911FDF91CF911F910F9139
:102D1000089508950E94E3160E9489160E94DC001F
:102D2000C1EAD4E10E94E5002097E1F30E94A114DA
:102D3000F9CF1F920F920FB60F9211242F933F934A
:102D40008F939F93AF93BF938091F2019091F30182
:102D5000A091F401B091F5013091F10123E0230F2E
:102D60002D3720F40196A11DB11D05C026E8230FC3
:102D70000296A11DB11D2093F1018093F201909361
:102D8000F301A093F401B093F5018091F6019091C5
:102D9000F701A091F801B091F9010196A11DB11DB3
:102DA0008093F6019093F701A093F801B093F90195
:102DB000BF91AF919F918F913F912F910F900FBE37
:102DC0000F901F901895789484B5826084BD84B567
:102DD000816084BD85B5826085BD85B5816085BD16
:102DE000EEE6F0E0808181608083E1E8F0E010822F
:102DF000808182608083808181608083E0E8F0E070
:102E0000808181608083E1EBF0E080818460808359
:102E1000E0EBF0E0808181608083EAE7F0E0808190
:102E200084608083808182608083808181608083F0
:102E30008081806880831092C10008958E3008F0F0
:102E40008E5020910E0190E4299F900111248770EB
:102E5000822B80937C0080917A00806480937A003A
:102E600080917A0086FDFCCF8091780020917900D6
:102E700090E0922B0895A1E21A2EAA1BBB1BFD0124
:102E80000DC0AA1FBB1FEE1FFF1FA217B307E40749
:102E9000F50720F0A21BB30BE40BF50B661F771FA1
:102EA000881F991F1A9469F7609570958095909581
:102EB0009B01AC01BD01CF010895EE0FFF1F0590EE
:102EC000F491E02D09945058BB27AA270E947B1744
:102ED0000C94BA180E94AC1838F00E94B31820F075
:102EE00039F49F3F19F426F40C94A9180EF4E095D8
:102EF000E7FB0C94A318E92F0E94CB1858F3BA17DC
:102F0000620773078407950720F079F4A6F50C94FF
:102F1000ED180EF4E0950B2EBA2FA02D0B01B90180
:102F200090010C01CA01A0011124FF27591B99F03F
:102F3000593F50F4503E68F11A16F040A22F232F4B
:102F4000342F4427585FF3CF469537952795A7959B
:102F5000F0405395C9F77EF41F16BA0B620B730B42
:102F6000840BBAF09150A1F0FF0FBB1F661F771FB3
:102F7000881FC2F70EC0BA0F621F731F841F48F468
:102F8000879577956795B795F7959E3F08F0B0CFF1
:102F90009395880F08F09927EE0F979587950895D8
:102FA0000E94E4170C94BA180E94B31858F00E94BB
:102FB000AC1840F029F45F3F29F00C94A31851118C
:102FC0000C94EE180C94A9180E94CB1868F399235E
:102FD000B1F3552391F3951B550BBB27AA27621715
:102FE0007307840738F09F5F5F4F220F331F441F22
:102FF000AA1FA9F335D00E2E3AF0E0E832D0915056
:103000005040E695001CCAF72BD0FE2F29D0660F42
:10301000771F881FBB1F261737074807AB07B0E885
:1030200009F0BB0B802DBF01FF2793585F4F3AF08B
:103030009E3F510578F00C94A3180C94EE185F3F56
:10304000E4F3983ED4F3869577956795B795F79511
:103050009F5FC9F7880F911D9695879597F90895F9
:10306000E1E0660F771F881FBB1F62177307840795
:10307000BA0720F0621B730B840BBA0BEE1F88F7A4
:10308000E0950895E89409C097FB3EF490958095EB
:10309000709561957F4F8F4F9F4F9923A9F0F92F1E
:1030A00096E9BB279395F695879577956795B7959C
:1030B000F111F8CFFAF4BB0F11F460FF1BC06F5F82
:1030C0007F4F8F4F9F4F16C0882311F096E911C094
:1030D000772321F09EE8872F762F05C0662371F0B5
:1030E00096E8862F70E060E02AF09A95660F771FC9
:1030F000881FDAF7880F9695879597F90895990FA5
:103100000008550FAA0BE0E8FEEF16161706E807B1
:10311000F907C0F012161306E407F50798F0621BD2
:10312000730B840B950B39F40A2661F0232B242BA7
:10313000252B21F408950A2609F4A140A6958FEFC6
:10314000811D811D089597F99F6780E870E060E018
:1031500008959FEF80EC089500240A941616170630
:1031600018060906089500240A9412161306140678
:1031700005060895092E0394000C11F4882352F0DB
:10318000BB0F40F4BF2B11F460FF04C06F5F7F4F93
:103190008F4F9F4F089557FD9058440F551F59F07A
:1031A0005F3F71F04795880F97FB991F61F09F3F34
:1031B00079F087950895121613061406551FF2CF5D
:1031C0004695F1DF08C0161617061806991FF1CFAD
:1031D00086957105610508940895E894BB276627D4
:1031E0007727CB0197F908950E947F1808F48FEF95
:1031F00008950E940C190C94BA180E94AC1838F06B
:103200000E94B31820F0952311F00C94A3180C948D
:10321000A91811240C94EE180E94CB1870F3959FF6
:10322000C1F3950F50E0551F629FF001729FBB27BD
:10323000F00DB11D639FAA27F00DB11DAA1F649F59
:103240006627B00DA11D661F829F2227B00DA11D0C
:10325000621F739FB00DA11D621F839FA00D611D92
:10326000221F749F3327A00D611D231F849F600DB3
:10327000211D822F762F6A2F11249F5750409AF0DC
:10328000F1F088234AF0EE0FFF1FBB1F661F771F68
:10329000881F91505040A9F79E3F510580F00C9433
:1032A000A3180C94EE185F3FE4F3983ED4F3869590
:1032B00077956795B795F795E7959F5FC1F7FE2BD3
:1032C000880F911D9695879597F90895EF920F9322
:1032D0001F93CF93DF93E80147FD02C034E001C0A4
:1032E00034E1042E000C550B57FF03C05195419556
:1032F0005109E32E022F242FAE010E94C51CCE01DE
:10330000DF91CF911F910F91EF9008950F931F932D
:10331000CF93DF938230910510F482E090E0E0914A
:10332000FC01F091FD0120E030E0A0E0B0E030973A
:1033300019F1408151810281138148175907C8F062
:103340008417950769F4109731F012960C93129731
:1033500013961C9327C00093FC011093FD0122C01B
:103360002115310519F04217530718F49A01BD01D0
:10337000EF01DF01F801DBCF21153105F9F0281B42
:10338000390B2430310580F48A819B8161157105E8
:1033900021F0FB019383828304C09093FD0180930D
:1033A000FC01FE01329644C0FE01E20FF31F81933F
:1033B000919322503109398328833AC02091FA0130
:1033C0003091FB01232B41F4209102013091030144
:1033D0003093FB012093FA0120910001309101010B
:1033E0002115310541F42DB73EB7409104015091AC
:1033F0000501241B350BE091FA01F091FB01E21766
:10340000F307A0F42E1B3F0B2817390778F0AC0107
:103410004E5F5F4F2417350748F04E0F5F1F5093E4
:10342000FB014093FA018193919302C0E0E0F0E048
:10343000CF01DF91CF911F910F910895CF93DF932B
:10344000009709F481C0FC01329713821282A09187
:10345000FC01B091FD01109781F420813181820F30
:10346000931F2091FA013091FB012817390751F57C
:10347000F093FB01E093FA0167C0ED0120E030E03A
:10348000CE17DF0740F44A815B819E01411551054B
:10349000F1F0EA01F5CFD383C28340815181840FDB
:1034A000951FC817D90759F488819981840F951FF2
:1034B0000296918380838A819B81938382832115E5
:1034C000310529F4F093FD01E093FC013DC0E901D1
:1034D000FB83EA8349915991C40FD51FEC17FD076F
:1034E00061F480819181840F951F0296E90199838F
:1034F0008883828193819B838A83E0E0F0E0129647
:103500008D919C911397009719F0FD01DC01F7CF85
:103510008D919C9111979D012E5F3F4F820F931FBC
:103520002091FA013091FB012817390769F430978F
:1035300029F41092FD011092FC0102C01382128244
:10354000B093FB01A093FA01DF91CF910895FB01A5
:10355000DC0102C001900D9241505040D8F708950F
:10356000DC0101C06D9341505040E0F70895FB012C
:10357000DC010D900020E9F7119701900D920020D9
:10358000E1F70895AEE0B0E0E8ECFAE10C94B51F85
:103590000D891E8986E08C831A8309838FEF9FE74C
:1035A0009E838D83AE01475E5F4F6F89788DCE011C
:1035B00001960E94E41AEF81F885E00FF11F108256
:1035C0002E96E4E00C94D11FABE0B0E0EAEEFAE115
:1035D0000C94A71F6C017B018A01FC0117821682E3
:1035E000838181FFCCC1CE0101963C01F60193811C
:1035F000F70193FD859193FF81917F01882309F461
:10360000BAC1853239F493FD859193FF81917F0191
:10361000853229F4B60190E00E940D1FE7CF912C6E
:10362000212C312CFFE1F315D8F08B3279F038F4EE
:10363000803279F08332A1F4232D20611DC08D32B8
:1036400061F0803369F4232D216016C0832D8260E0
:10365000382EE32DE4603E2E2AC0F32DF8601DC005
:1036600037FC2DC020ED280F2A3040F08E32B9F4FF
:1036700036FC81C1232D2064322E19C036FE06C0CF
:103680008AE0989E200D1124922E11C0EAE02E9E11
:10369000200D1124222EF32DF0623F2E08C08C360F
:1036A00021F4832D8068382E02C0883641F4F7015A
:1036B00093FD859193FF81917F018111B3CF982F65
:1036C0009F7D9554933028F40C5F1F4F9FE399839F
:1036D0000DC0833631F0833771F0833509F059C05E
:1036E00021C0F801808189830E5F1F4F8824839455
:1036F000912C530113C02801F2E04F0E511CF80128
:10370000A080B18036FE03C0692D70E002C06FEF6B
:103710007FEFC5010E94021F4C018201F32DFF774C
:103720003F2E16C0280122E0420E511CF801A08055
:10373000B18036FE03C0692D70E002C06FEF7FEFED
:10374000C5010E94F71E4C01F32DF0683F2E820147
:1037500033FC1BC0822D90E088169906B0F4B601A8
:1037600080E290E00E940D1F2A94F4CFF50137FC0F
:10377000859137FE81915F01B60190E00E940D1F97
:1037800021102A9421E0821A91088114910471F782
:10379000E8C0843611F0893641F5F80137FE07C0DC
:1037A00060817181828193810C5F1F4F08C06081AD
:1037B0007181072E000C880B990B0E5F1F4FF32DA4
:1037C000FF763F2E97FF09C0909580957095619583
:1037D0007F4F8F4F9F4FF0683F2E2AE030E0A301CC
:1037E0000E94491F882E861845C0853731F4232D45
:1037F0002F7EB22E2AE030E025C0932D997FB92E7E
:103800008F36C1F018F4883579F0B5C0803719F0DB
:10381000883721F0B0C0E92FE061BE2EB4FE0DC0A4
:10382000FB2DF460BF2E09C034FE0AC0292F26608C
:10383000B22E06C028E030E005C020E130E002C032
:1038400020E132E0F801B7FE07C06081718182811A
:1038500093810C5F1F4F06C06081718180E090E012
:103860000E5F1F4FA3010E94491F882E8618FB2D53
:10387000FF773F2E36FE0DC0232D2E7FA22E8914FA
:1038800058F434FE0BC032FC09C0832D8E7EA82E66
:1038900005C0B82CA32C03C0B82C01C0B92CA4FEC1
:1038A0000FC0FE01E80DF11D8081803321F49A2DB7
:1038B000997EA92E09C0A2FE06C0B394B39404C099
:1038C0008A2D867809F0B394A3FC11C0A0FE06C02F
:1038D000B21488F4280C922C9B180EC0B21460F419
:1038E000B60180E290E00E940D1FB394F7CFB214AE
:1038F00018F42B1802C0982C212CA4FE10C0B6017D
:1039000080E390E00E940D1FA2FE17C0A1FC03C03F
:1039100088E790E002C088E590E0B6010CC08A2DEF
:10392000867859F0A1FE02C08BE201C080E2A7FCBC
:103930008DE2B60190E00E940D1F891438F4B601A3
:1039400080E390E00E940D1F9A94F7CF8A94F301D0
:10395000E80DF11D8081B60190E00E940D1F8110DD
:10396000F5CF222009F442CEB60180E290E00E9419
:103970000D1F2A94F6CFF6018681978102C08FEF42
:103980009FEF2B96E2E10C94C31FA9E0B0E0EBECB3
:10399000FCE10C94AD1F6A01122FB02E2BE320170F
:1039A00020F0FF24F394F00E02C02CE3F22E0F2D32
:1039B00027E0AE014F5F5F4F0E941F1EBC0149818F
:1039C000842F8970813031F0E1FC06C0E0FE06C032
:1039D00090E205C09DE203C09BE201C090E05E2D35
:1039E000507143FF3CC0911102C083E001C084E0EC
:1039F000811718F4212F281B01C020E051110BC0A2
:103A0000F601822F30E2882319F031938150FBCFE9
:103A1000C20ED11C20E0992329F0D6019C93F60117
:103A200031966F01C6010396E2FE0AC03EE4D6015C
:103A30003C9341E411964C93119712963C9306C027
:103A40003EE6F601308341E641833283FC01322FAA
:103A500040E2332309F442C041933150FACF42FF90
:103A600044C0911102C083E001C084E0811718F4C2
:103A7000212F281B01C020E051110BC0F601822F1D
:103A800030E2882319F031938150FBCFC20ED11C54
:103A900020E0992329F0D6019C93F60131966F011D
:103AA000C6010396E2FE0BC039E4D6013C933EE426
:103AB00011963C93119736E412963C9307C039E671
:103AC000F60130833EE6318336E63283FC01322F45
:103AD00040E2332319F041933150FBCFFC01E20F58
:103AE000F11D10828EEF9FEFA6C021E030E0911112
:103AF00002C020E030E0161617061CF4FB013196D8
:103B000002C0E1E0F0E02E0F3F1FBB2021F0EB2DC3
:103B1000F0E0319602C0E0E0F0E02E0F3F1FE12F11
:103B2000F0E02E173F071CF4121B212F01C020E0EC
:103B30008E2D887159F4F601822F30E2882319F016
:103B400031938150FBCFC20ED11C20E0992329F084
:103B5000D6019C93F60131966F0151110BC0F6010D
:103B6000822F90E3882319F091938150FBCFC20EEE
:103B7000D11C20E00F2D060F9A81342F307144FFA5
:103B800003C0913309F40150101624F4093018F0E1
:103B900008E001C001E0AB0177FF02C040E050E067
:103BA000FB01E41BF50BA1E0B0E0AC0FBD1FEA0F79
:103BB000FB1F8EE2A82E4B01801A91080B2D10E0FE
:103BC0001195019511094F3FBFEF5B0721F4D60115
:103BD000AC9211966D01641775072CF0841695064A
:103BE00014F4818101C080E3415051093196D6011E
:103BF00011967D014017510724F0D6018C9367017F
:103C0000E2CF6417750739F4963320F4953319F42D
:103C1000311101C081E3F6018083F701822F90E228
:103C2000882319F091938150FBCFF701E20FF11D2A
:103C3000108280E090E02996ECE00C94C91F2830B7
:103C400008F027E03327DA01990F311D87FD9160D5
:103C500000966105710539F432602E5F3D9330E3C3
:103C60002A95E1F708959F3F30F08038710561058E
:103C700009F03C5F3C5F3D93913008F08068911DF6
:103C8000DF93CF931F930F93FF92EF92192F987F9B
:103C90009695E92F96959695E90FFF27EE53FF4FDE
:103CA00099273327EE24FF24A701E7010590089404
:103CB000079428F4360FE71EF81E491F511D660FA2
:103CC000771F881F991F0694A1F70590079428F481
:103CD000E70EF81E491F561FC11D770F881F991F39
:103CE000661F0694A1F70590079428F4F80E491F63
:103CF000561FC71FD11D880F991F661F771F069477
:103D0000A1F70590079420F4490F561FC71FD81F2D
:103D1000990F661F771F881F0694A9F78491109545
:103D2000177041F0D695C79557954795F794E79446
:103D30001A95C1F7E8E6F0E0689415901591359171
:103D40006591959105907FE27395E118F10A430B17
:103D5000560BC90BD009C0F7E10CF11E431F561FCB
:103D6000C91FD01D7EF4703311F48A95E6CFE89414
:103D7000015030F0080F0AF40027021708F4202F32
:103D80002395022F7A3328F079E37D932A95E9F77A
:103D900010C07D932A9589F6069497956795379577
:103DA00017951794E118F10A430B560BC90BD0096C
:103DB00098F023957E9173957A3308F070E37C93A5
:103DC0002013B8F77E9170617D9330F0839571E395
:103DD0007D9370E32A95E1F71124EF90FF900F9106
:103DE0001F91CF91DF91992787FD90950895FC0150
:103DF0000590615070400110D8F7809590958E0F16
:103E00009F1F0895FC016150704001900110D8F788
:103E1000809590958E0F9F1F08950F931F93CF93BA
:103E2000DF93FB01238121FD03C08FEF9FEF2CC0A7
:103E300022FF16C0468157812481358142175307DE
:103E400044F4A081B1819D012F5F3F4F31832083D6
:103E50008C93268137812F5F3F4F3783268314C091
:103E60008B01EC01FB010084F185E02D0995892B84
:103E7000E1F6D80116968D919C91179701961796A9
:103E80009C938E931697CE01DF91CF911F910F9146
:103E90000895FA01AA27283051F1203181F1E894E0
:103EA0006F936E7F6E5F7F4F8F4F9F4FAF4FB1E02D
:103EB0003ED0B4E03CD0670F781F891F9A1FA11D28
:103EC000680F791F8A1F911DA11D6A0F711D811D29
:103ED000911DA11D20D009F468943F912AE0269FEE
:103EE00011243019305D3193DEF6CF010895462F4D
:103EF0004770405D4193B3E00FD0C9F7F6CF462F2E
:103F00004F70405D4A3318F0495D31FD4052419396
:103F100002D0A9F7EACFB4E0A69597958795779553
:103F20006795BA95C9F700976105710508959B01DA
:103F3000AC010A2E06945795479537952795BA9563
:103F4000C9F7620F731F841F951FA01D08952F923C
:103F50003F924F925F926F927F928F929F92AF9219
:103F6000BF92CF92DF92EF92FF920F931F93CF9366
:103F7000DF93CDB7DEB7CA1BDB0B0FB6F894DEBFFD
:103F80000FBECDBF09942A88398848885F846E8423
:103F90007D848C849B84AA84B984C884DF80EE806D
:103FA000FD800C811B81AA81B981CE0FD11D0FB676
:103FB000F894DEBF0FBECDBFED010895F894FFCF9A
:103FC0000000FE01800000001F430F001300017C71
:103FD00000257323257300303132333435363738BA
:103FE000396162636465660000000000D114341614
:103FF00092141E1564147E1470140D0A006E616E06
:0A40000000696E66006F766600002E
:00000001FF
